{
	"contratoSafeCofre.sol": {
		"CofrinhoSeguro": {
			"abi": [
				{
					"inputs": [],
					"name": "depositar",
					"outputs": [],
					"stateMutability": "payable",
					"type": "function"
				},
				{
					"inputs": [],
					"name": "sacar",
					"outputs": [],
					"stateMutability": "nonpayable",
					"type": "function"
				},
				{
					"inputs": [],
					"name": "saldoAtual",
					"outputs": [
						{
							"internalType": "uint256",
							"name": "",
							"type": "uint256"
						}
					],
					"stateMutability": "view",
					"type": "function"
				},
				{
					"inputs": [
						{
							"internalType": "address",
							"name": "",
							"type": "address"
						}
					],
					"name": "saldos",
					"outputs": [
						{
							"internalType": "uint256",
							"name": "",
							"type": "uint256"
						}
					],
					"stateMutability": "view",
					"type": "function"
				}
			],
			"devdoc": {
				"kind": "dev",
				"methods": {},
				"version": 1
			},
			"evm": {
				"assembly": "    /* \"contratoSafeCofre.sol\":121:1032  contract CofrinhoSeguro is ReentrancyGuard {... */\n  mstore(0x40, 0x80)\n  callvalue\n  dup1\n  iszero\n  tag_1\n  jumpi\n  revert(0x00, 0x00)\ntag_1:\n  pop\n    /* \"@openzeppelin/contracts/security/ReentrancyGuard.sol\":1716:1717  1 */\n  0x01\n    /* \"@openzeppelin/contracts/security/ReentrancyGuard.sol\":1821:1828  _status */\n  0x00\n    /* \"@openzeppelin/contracts/security/ReentrancyGuard.sol\":1821:1843  _status = _NOT_ENTERED */\n  dup2\n  swap1\n  sstore\n  pop\n    /* \"contratoSafeCofre.sol\":121:1032  contract CofrinhoSeguro is ReentrancyGuard {... */\n  dataSize(sub_0)\n  dup1\n  dataOffset(sub_0)\n  0x00\n  codecopy\n  0x00\n  return\nstop\n\nsub_0: assembly {\n        /* \"contratoSafeCofre.sol\":121:1032  contract CofrinhoSeguro is ReentrancyGuard {... */\n      mstore(0x40, 0x80)\n      jumpi(tag_1, lt(calldatasize, 0x04))\n      shr(0xe0, calldataload(0x00))\n      dup1\n      0x06f03e76\n      eq\n      tag_2\n      jumpi\n      dup1\n      0x3d922f90\n      eq\n      tag_3\n      jumpi\n      dup1\n      0xa51068c8\n      eq\n      tag_4\n      jumpi\n      dup1\n      0xc68c0612\n      eq\n      tag_5\n      jumpi\n    tag_1:\n      revert(0x00, 0x00)\n        /* \"contratoSafeCofre.sol\":934:1030  function saldoAtual() external view returns (uint256) {... */\n    tag_2:\n      callvalue\n      dup1\n      iszero\n      tag_6\n      jumpi\n      revert(0x00, 0x00)\n    tag_6:\n      pop\n      tag_7\n      tag_8\n      jump\t// in\n    tag_7:\n      mload(0x40)\n      tag_9\n      swap2\n      swap1\n      tag_10\n      jump\t// in\n    tag_9:\n      mload(0x40)\n      dup1\n      swap2\n      sub\n      swap1\n      return\n        /* \"contratoSafeCofre.sol\":252:404  function depositar() external payable {... */\n    tag_3:\n      tag_11\n      tag_12\n      jump\t// in\n    tag_11:\n      stop\n        /* \"contratoSafeCofre.sol\":470:894  function sacar() external nonReentrant  {... */\n    tag_4:\n      callvalue\n      dup1\n      iszero\n      tag_13\n      jumpi\n      revert(0x00, 0x00)\n    tag_13:\n      pop\n      tag_14\n      tag_15\n      jump\t// in\n    tag_14:\n      stop\n        /* \"contratoSafeCofre.sol\":170:211  mapping(address => uint256) public saldos */\n    tag_5:\n      callvalue\n      dup1\n      iszero\n      tag_16\n      jumpi\n      revert(0x00, 0x00)\n    tag_16:\n      pop\n      tag_17\n      0x04\n      dup1\n      calldatasize\n      sub\n      dup2\n      add\n      swap1\n      tag_18\n      swap2\n      swap1\n      tag_19\n      jump\t// in\n    tag_18:\n      tag_20\n      jump\t// in\n    tag_17:\n      mload(0x40)\n      tag_21\n      swap2\n      swap1\n      tag_10\n      jump\t// in\n    tag_21:\n      mload(0x40)\n      dup1\n      swap2\n      sub\n      swap1\n      return\n        /* \"contratoSafeCofre.sol\":934:1030  function saldoAtual() external view returns (uint256) {... */\n    tag_8:\n        /* \"contratoSafeCofre.sol\":979:986  uint256 */\n      0x00\n        /* \"contratoSafeCofre.sol\":1005:1011  saldos */\n      0x01\n        /* \"contratoSafeCofre.sol\":1005:1023  saldos[msg.sender] */\n      0x00\n        /* \"contratoSafeCofre.sol\":1012:1022  msg.sender */\n      caller\n        /* \"contratoSafeCofre.sol\":1005:1023  saldos[msg.sender] */\n      0xffffffffffffffffffffffffffffffffffffffff\n      and\n      0xffffffffffffffffffffffffffffffffffffffff\n      and\n      dup2\n      mstore\n      0x20\n      add\n      swap1\n      dup2\n      mstore\n      0x20\n      add\n      0x00\n      keccak256\n      sload\n        /* \"contratoSafeCofre.sol\":998:1023  return saldos[msg.sender] */\n      swap1\n      pop\n        /* \"contratoSafeCofre.sol\":934:1030  function saldoAtual() external view returns (uint256) {... */\n      swap1\n      jump\t// out\n        /* \"contratoSafeCofre.sol\":252:404  function depositar() external payable {... */\n    tag_12:\n        /* \"contratoSafeCofre.sol\":320:321  0 */\n      0x00\n        /* \"contratoSafeCofre.sol\":308:317  msg.value */\n      callvalue\n        /* \"contratoSafeCofre.sol\":308:321  msg.value > 0 */\n      gt\n        /* \"contratoSafeCofre.sol\":300:356  require(msg.value > 0, \"Valor deve ser maior que zero.\") */\n      tag_24\n      jumpi\n      mload(0x40)\n      0x08c379a000000000000000000000000000000000000000000000000000000000\n      dup2\n      mstore\n      0x04\n      add\n      tag_25\n      swap1\n      tag_26\n      jump\t// in\n    tag_25:\n      mload(0x40)\n      dup1\n      swap2\n      sub\n      swap1\n      revert\n    tag_24:\n        /* \"contratoSafeCofre.sol\":388:397  msg.value */\n      callvalue\n        /* \"contratoSafeCofre.sol\":366:372  saldos */\n      0x01\n        /* \"contratoSafeCofre.sol\":366:384  saldos[msg.sender] */\n      0x00\n        /* \"contratoSafeCofre.sol\":373:383  msg.sender */\n      caller\n        /* \"contratoSafeCofre.sol\":366:384  saldos[msg.sender] */\n      0xffffffffffffffffffffffffffffffffffffffff\n      and\n      0xffffffffffffffffffffffffffffffffffffffff\n      and\n      dup2\n      mstore\n      0x20\n      add\n      swap1\n      dup2\n      mstore\n      0x20\n      add\n      0x00\n      keccak256\n      0x00\n        /* \"contratoSafeCofre.sol\":366:397  saldos[msg.sender] += msg.value */\n      dup3\n      dup3\n      sload\n      tag_27\n      swap2\n      swap1\n      tag_28\n      jump\t// in\n    tag_27:\n      swap3\n      pop\n      pop\n      dup2\n      swap1\n      sstore\n      pop\n        /* \"contratoSafeCofre.sol\":252:404  function depositar() external payable {... */\n      jump\t// out\n        /* \"contratoSafeCofre.sol\":470:894  function sacar() external nonReentrant  {... */\n    tag_15:\n        /* \"@openzeppelin/contracts/security/ReentrancyGuard.sol\":2261:2282  _nonReentrantBefore() */\n      tag_30\n        /* \"@openzeppelin/contracts/security/ReentrancyGuard.sol\":2261:2280  _nonReentrantBefore */\n      tag_31\n        /* \"@openzeppelin/contracts/security/ReentrancyGuard.sol\":2261:2282  _nonReentrantBefore() */\n      jump\t// in\n    tag_30:\n        /* \"contratoSafeCofre.sol\":520:533  uint256 valor */\n      0x00\n        /* \"contratoSafeCofre.sol\":536:542  saldos */\n      0x01\n        /* \"contratoSafeCofre.sol\":536:554  saldos[msg.sender] */\n      0x00\n        /* \"contratoSafeCofre.sol\":543:553  msg.sender */\n      caller\n        /* \"contratoSafeCofre.sol\":536:554  saldos[msg.sender] */\n      0xffffffffffffffffffffffffffffffffffffffff\n      and\n      0xffffffffffffffffffffffffffffffffffffffff\n      and\n      dup2\n      mstore\n      0x20\n      add\n      swap1\n      dup2\n      mstore\n      0x20\n      add\n      0x00\n      keccak256\n      sload\n        /* \"contratoSafeCofre.sol\":520:554  uint256 valor = saldos[msg.sender] */\n      swap1\n      pop\n        /* \"contratoSafeCofre.sol\":625:626  0 */\n      0x00\n        /* \"contratoSafeCofre.sol\":617:622  valor */\n      dup2\n        /* \"contratoSafeCofre.sol\":617:626  valor > 0 */\n      gt\n        /* \"contratoSafeCofre.sol\":609:652  require(valor > 0, \"Sem saldo para sacar.\") */\n      tag_33\n      jumpi\n      mload(0x40)\n      0x08c379a000000000000000000000000000000000000000000000000000000000\n      dup2\n      mstore\n      0x04\n      add\n      tag_34\n      swap1\n      tag_35\n      jump\t// in\n    tag_34:\n      mload(0x40)\n      dup1\n      swap2\n      sub\n      swap1\n      revert\n    tag_33:\n        /* \"contratoSafeCofre.sol\":697:698  0 */\n      0x00\n        /* \"contratoSafeCofre.sol\":676:682  saldos */\n      0x01\n        /* \"contratoSafeCofre.sol\":676:694  saldos[msg.sender] */\n      0x00\n        /* \"contratoSafeCofre.sol\":683:693  msg.sender */\n      caller\n        /* \"contratoSafeCofre.sol\":676:694  saldos[msg.sender] */\n      0xffffffffffffffffffffffffffffffffffffffff\n      and\n      0xffffffffffffffffffffffffffffffffffffffff\n      and\n      dup2\n      mstore\n      0x20\n      add\n      swap1\n      dup2\n      mstore\n      0x20\n      add\n      0x00\n      keccak256\n        /* \"contratoSafeCofre.sol\":676:698  saldos[msg.sender] = 0 */\n      dup2\n      swap1\n      sstore\n      pop\n        /* \"contratoSafeCofre.sol\":759:771  bool sucesso */\n      0x00\n        /* \"contratoSafeCofre.sol\":782:792  msg.sender */\n      caller\n        /* \"contratoSafeCofre.sol\":774:798  payable(msg.sender).send */\n      0xffffffffffffffffffffffffffffffffffffffff\n      and\n        /* \"contratoSafeCofre.sol\":774:805  payable(msg.sender).send(valor) */\n      0x08fc\n        /* \"contratoSafeCofre.sol\":799:804  valor */\n      dup4\n        /* \"contratoSafeCofre.sol\":774:805  payable(msg.sender).send(valor) */\n      swap1\n      dup2\n      iszero\n      mul\n      swap1\n      mload(0x40)\n      0x00\n      mload(0x40)\n      dup1\n      dup4\n      sub\n      dup2\n      dup6\n      dup9\n      dup9\n      call\n      swap4\n      pop\n      pop\n      pop\n      pop\n        /* \"contratoSafeCofre.sol\":759:805  bool sucesso = payable(msg.sender).send(valor) */\n      swap1\n      pop\n        /* \"contratoSafeCofre.sol\":861:868  sucesso */\n      dup1\n        /* \"contratoSafeCofre.sol\":853:887  require(sucesso, \"Falha no envio\") */\n      tag_37\n      jumpi\n      mload(0x40)\n      0x08c379a000000000000000000000000000000000000000000000000000000000\n      dup2\n      mstore\n      0x04\n      add\n      tag_38\n      swap1\n      tag_39\n      jump\t// in\n    tag_38:\n      mload(0x40)\n      dup1\n      swap2\n      sub\n      swap1\n      revert\n    tag_37:\n        /* \"contratoSafeCofre.sol\":510:894  {... */\n      pop\n      pop\n        /* \"@openzeppelin/contracts/security/ReentrancyGuard.sol\":2303:2323  _nonReentrantAfter() */\n      tag_40\n        /* \"@openzeppelin/contracts/security/ReentrancyGuard.sol\":2303:2321  _nonReentrantAfter */\n      tag_41\n        /* \"@openzeppelin/contracts/security/ReentrancyGuard.sol\":2303:2323  _nonReentrantAfter() */\n      jump\t// in\n    tag_40:\n        /* \"contratoSafeCofre.sol\":470:894  function sacar() external nonReentrant  {... */\n      jump\t// out\n        /* \"contratoSafeCofre.sol\":170:211  mapping(address => uint256) public saldos */\n    tag_20:\n      mstore(0x20, 0x01)\n      dup1\n      0x00\n      mstore\n      keccak256(0x00, 0x40)\n      0x00\n      swap2\n      pop\n      swap1\n      pop\n      sload\n      dup2\n      jump\t// out\n        /* \"@openzeppelin/contracts/security/ReentrancyGuard.sol\":2336:2623  function _nonReentrantBefore() private {... */\n    tag_31:\n        /* \"@openzeppelin/contracts/security/ReentrancyGuard.sol\":1759:1760  2 */\n      0x02\n        /* \"@openzeppelin/contracts/security/ReentrancyGuard.sol\":2468:2475  _status */\n      sload(0x00)\n        /* \"@openzeppelin/contracts/security/ReentrancyGuard.sol\":2468:2487  _status != _ENTERED */\n      sub\n        /* \"@openzeppelin/contracts/security/ReentrancyGuard.sol\":2460:2523  require(_status != _ENTERED, \"ReentrancyGuard: reentrant call\") */\n      tag_43\n      jumpi\n      mload(0x40)\n      0x08c379a000000000000000000000000000000000000000000000000000000000\n      dup2\n      mstore\n      0x04\n      add\n      tag_44\n      swap1\n      tag_45\n      jump\t// in\n    tag_44:\n      mload(0x40)\n      dup1\n      swap2\n      sub\n      swap1\n      revert\n    tag_43:\n        /* \"@openzeppelin/contracts/security/ReentrancyGuard.sol\":1759:1760  2 */\n      0x02\n        /* \"@openzeppelin/contracts/security/ReentrancyGuard.sol\":2598:2605  _status */\n      0x00\n        /* \"@openzeppelin/contracts/security/ReentrancyGuard.sol\":2598:2616  _status = _ENTERED */\n      dup2\n      swap1\n      sstore\n      pop\n        /* \"@openzeppelin/contracts/security/ReentrancyGuard.sol\":2336:2623  function _nonReentrantBefore() private {... */\n      jump\t// out\n        /* \"@openzeppelin/contracts/security/ReentrancyGuard.sol\":2629:2838  function _nonReentrantAfter() private {... */\n    tag_41:\n        /* \"@openzeppelin/contracts/security/ReentrancyGuard.sol\":1716:1717  1 */\n      0x01\n        /* \"@openzeppelin/contracts/security/ReentrancyGuard.sol\":2809:2816  _status */\n      0x00\n        /* \"@openzeppelin/contracts/security/ReentrancyGuard.sol\":2809:2831  _status = _NOT_ENTERED */\n      dup2\n      swap1\n      sstore\n      pop\n        /* \"@openzeppelin/contracts/security/ReentrancyGuard.sol\":2629:2838  function _nonReentrantAfter() private {... */\n      jump\t// out\n        /* \"#utility.yul\":7:84   */\n    tag_47:\n        /* \"#utility.yul\":44:51   */\n      0x00\n        /* \"#utility.yul\":73:78   */\n      dup2\n        /* \"#utility.yul\":62:78   */\n      swap1\n      pop\n        /* \"#utility.yul\":7:84   */\n      swap2\n      swap1\n      pop\n      jump\t// out\n        /* \"#utility.yul\":90:208   */\n    tag_48:\n        /* \"#utility.yul\":177:201   */\n      tag_69\n        /* \"#utility.yul\":195:200   */\n      dup2\n        /* \"#utility.yul\":177:201   */\n      tag_47\n      jump\t// in\n    tag_69:\n        /* \"#utility.yul\":172:175   */\n      dup3\n        /* \"#utility.yul\":165:202   */\n      mstore\n        /* \"#utility.yul\":90:208   */\n      pop\n      pop\n      jump\t// out\n        /* \"#utility.yul\":214:436   */\n    tag_10:\n        /* \"#utility.yul\":307:311   */\n      0x00\n        /* \"#utility.yul\":345:347   */\n      0x20\n        /* \"#utility.yul\":334:343   */\n      dup3\n        /* \"#utility.yul\":330:348   */\n      add\n        /* \"#utility.yul\":322:348   */\n      swap1\n      pop\n        /* \"#utility.yul\":358:429   */\n      tag_71\n        /* \"#utility.yul\":426:427   */\n      0x00\n        /* \"#utility.yul\":415:424   */\n      dup4\n        /* \"#utility.yul\":411:428   */\n      add\n        /* \"#utility.yul\":402:408   */\n      dup5\n        /* \"#utility.yul\":358:429   */\n      tag_48\n      jump\t// in\n    tag_71:\n        /* \"#utility.yul\":214:436   */\n      swap3\n      swap2\n      pop\n      pop\n      jump\t// out\n        /* \"#utility.yul\":523:640   */\n    tag_50:\n        /* \"#utility.yul\":632:633   */\n      0x00\n        /* \"#utility.yul\":629:630   */\n      0x00\n        /* \"#utility.yul\":622:634   */\n      revert\n        /* \"#utility.yul\":769:895   */\n    tag_52:\n        /* \"#utility.yul\":806:813   */\n      0x00\n        /* \"#utility.yul\":846:888   */\n      0xffffffffffffffffffffffffffffffffffffffff\n        /* \"#utility.yul\":839:844   */\n      dup3\n        /* \"#utility.yul\":835:889   */\n      and\n        /* \"#utility.yul\":824:889   */\n      swap1\n      pop\n        /* \"#utility.yul\":769:895   */\n      swap2\n      swap1\n      pop\n      jump\t// out\n        /* \"#utility.yul\":901:997   */\n    tag_53:\n        /* \"#utility.yul\":938:945   */\n      0x00\n        /* \"#utility.yul\":967:991   */\n      tag_77\n        /* \"#utility.yul\":985:990   */\n      dup3\n        /* \"#utility.yul\":967:991   */\n      tag_52\n      jump\t// in\n    tag_77:\n        /* \"#utility.yul\":956:991   */\n      swap1\n      pop\n        /* \"#utility.yul\":901:997   */\n      swap2\n      swap1\n      pop\n      jump\t// out\n        /* \"#utility.yul\":1003:1125   */\n    tag_54:\n        /* \"#utility.yul\":1076:1100   */\n      tag_79\n        /* \"#utility.yul\":1094:1099   */\n      dup2\n        /* \"#utility.yul\":1076:1100   */\n      tag_53\n      jump\t// in\n    tag_79:\n        /* \"#utility.yul\":1069:1074   */\n      dup2\n        /* \"#utility.yul\":1066:1101   */\n      eq\n        /* \"#utility.yul\":1056:1119   */\n      tag_80\n      jumpi\n        /* \"#utility.yul\":1115:1116   */\n      0x00\n        /* \"#utility.yul\":1112:1113   */\n      0x00\n        /* \"#utility.yul\":1105:1117   */\n      revert\n        /* \"#utility.yul\":1056:1119   */\n    tag_80:\n        /* \"#utility.yul\":1003:1125   */\n      pop\n      jump\t// out\n        /* \"#utility.yul\":1131:1270   */\n    tag_55:\n        /* \"#utility.yul\":1177:1182   */\n      0x00\n        /* \"#utility.yul\":1215:1221   */\n      dup2\n        /* \"#utility.yul\":1202:1222   */\n      calldataload\n        /* \"#utility.yul\":1193:1222   */\n      swap1\n      pop\n        /* \"#utility.yul\":1231:1264   */\n      tag_82\n        /* \"#utility.yul\":1258:1263   */\n      dup2\n        /* \"#utility.yul\":1231:1264   */\n      tag_54\n      jump\t// in\n    tag_82:\n        /* \"#utility.yul\":1131:1270   */\n      swap3\n      swap2\n      pop\n      pop\n      jump\t// out\n        /* \"#utility.yul\":1276:1605   */\n    tag_19:\n        /* \"#utility.yul\":1335:1341   */\n      0x00\n        /* \"#utility.yul\":1384:1386   */\n      0x20\n        /* \"#utility.yul\":1372:1381   */\n      dup3\n        /* \"#utility.yul\":1363:1370   */\n      dup5\n        /* \"#utility.yul\":1359:1382   */\n      sub\n        /* \"#utility.yul\":1355:1387   */\n      slt\n        /* \"#utility.yul\":1352:1471   */\n      iszero\n      tag_84\n      jumpi\n        /* \"#utility.yul\":1390:1469   */\n      tag_85\n      tag_50\n      jump\t// in\n    tag_85:\n        /* \"#utility.yul\":1352:1471   */\n    tag_84:\n        /* \"#utility.yul\":1510:1511   */\n      0x00\n        /* \"#utility.yul\":1535:1588   */\n      tag_86\n        /* \"#utility.yul\":1580:1587   */\n      dup5\n        /* \"#utility.yul\":1571:1577   */\n      dup3\n        /* \"#utility.yul\":1560:1569   */\n      dup6\n        /* \"#utility.yul\":1556:1578   */\n      add\n        /* \"#utility.yul\":1535:1588   */\n      tag_55\n      jump\t// in\n    tag_86:\n        /* \"#utility.yul\":1525:1588   */\n      swap2\n      pop\n        /* \"#utility.yul\":1481:1598   */\n      pop\n        /* \"#utility.yul\":1276:1605   */\n      swap3\n      swap2\n      pop\n      pop\n      jump\t// out\n        /* \"#utility.yul\":1611:1780   */\n    tag_56:\n        /* \"#utility.yul\":1695:1706   */\n      0x00\n        /* \"#utility.yul\":1729:1735   */\n      dup3\n        /* \"#utility.yul\":1724:1727   */\n      dup3\n        /* \"#utility.yul\":1717:1736   */\n      mstore\n        /* \"#utility.yul\":1769:1773   */\n      0x20\n        /* \"#utility.yul\":1764:1767   */\n      dup3\n        /* \"#utility.yul\":1760:1774   */\n      add\n        /* \"#utility.yul\":1745:1774   */\n      swap1\n      pop\n        /* \"#utility.yul\":1611:1780   */\n      swap3\n      swap2\n      pop\n      pop\n      jump\t// out\n        /* \"#utility.yul\":1786:1966   */\n    tag_57:\n        /* \"#utility.yul\":1926:1958   */\n      0x56616c6f72206465766520736572206d61696f7220717565207a65726f2e0000\n        /* \"#utility.yul\":1922:1923   */\n      0x00\n        /* \"#utility.yul\":1914:1920   */\n      dup3\n        /* \"#utility.yul\":1910:1924   */\n      add\n        /* \"#utility.yul\":1903:1959   */\n      mstore\n        /* \"#utility.yul\":1786:1966   */\n      pop\n      jump\t// out\n        /* \"#utility.yul\":1972:2338   */\n    tag_58:\n        /* \"#utility.yul\":2114:2117   */\n      0x00\n        /* \"#utility.yul\":2135:2202   */\n      tag_90\n        /* \"#utility.yul\":2199:2201   */\n      0x1e\n        /* \"#utility.yul\":2194:2197   */\n      dup4\n        /* \"#utility.yul\":2135:2202   */\n      tag_56\n      jump\t// in\n    tag_90:\n        /* \"#utility.yul\":2128:2202   */\n      swap2\n      pop\n        /* \"#utility.yul\":2211:2304   */\n      tag_91\n        /* \"#utility.yul\":2300:2303   */\n      dup3\n        /* \"#utility.yul\":2211:2304   */\n      tag_57\n      jump\t// in\n    tag_91:\n        /* \"#utility.yul\":2329:2331   */\n      0x20\n        /* \"#utility.yul\":2324:2327   */\n      dup3\n        /* \"#utility.yul\":2320:2332   */\n      add\n        /* \"#utility.yul\":2313:2332   */\n      swap1\n      pop\n        /* \"#utility.yul\":1972:2338   */\n      swap2\n      swap1\n      pop\n      jump\t// out\n        /* \"#utility.yul\":2344:2763   */\n    tag_26:\n        /* \"#utility.yul\":2510:2514   */\n      0x00\n        /* \"#utility.yul\":2548:2550   */\n      0x20\n        /* \"#utility.yul\":2537:2546   */\n      dup3\n        /* \"#utility.yul\":2533:2551   */\n      add\n        /* \"#utility.yul\":2525:2551   */\n      swap1\n      pop\n        /* \"#utility.yul\":2597:2606   */\n      dup2\n        /* \"#utility.yul\":2591:2595   */\n      dup2\n        /* \"#utility.yul\":2587:2607   */\n      sub\n        /* \"#utility.yul\":2583:2584   */\n      0x00\n        /* \"#utility.yul\":2572:2581   */\n      dup4\n        /* \"#utility.yul\":2568:2585   */\n      add\n        /* \"#utility.yul\":2561:2608   */\n      mstore\n        /* \"#utility.yul\":2625:2756   */\n      tag_93\n        /* \"#utility.yul\":2751:2755   */\n      dup2\n        /* \"#utility.yul\":2625:2756   */\n      tag_58\n      jump\t// in\n    tag_93:\n        /* \"#utility.yul\":2617:2756   */\n      swap1\n      pop\n        /* \"#utility.yul\":2344:2763   */\n      swap2\n      swap1\n      pop\n      jump\t// out\n        /* \"#utility.yul\":2769:2949   */\n    tag_59:\n        /* \"#utility.yul\":2817:2894   */\n      0x4e487b7100000000000000000000000000000000000000000000000000000000\n        /* \"#utility.yul\":2814:2815   */\n      0x00\n        /* \"#utility.yul\":2807:2895   */\n      mstore\n        /* \"#utility.yul\":2914:2918   */\n      0x11\n        /* \"#utility.yul\":2911:2912   */\n      0x04\n        /* \"#utility.yul\":2904:2919   */\n      mstore\n        /* \"#utility.yul\":2938:2942   */\n      0x24\n        /* \"#utility.yul\":2935:2936   */\n      0x00\n        /* \"#utility.yul\":2928:2943   */\n      revert\n        /* \"#utility.yul\":2955:3146   */\n    tag_28:\n        /* \"#utility.yul\":2995:2998   */\n      0x00\n        /* \"#utility.yul\":3014:3034   */\n      tag_96\n        /* \"#utility.yul\":3032:3033   */\n      dup3\n        /* \"#utility.yul\":3014:3034   */\n      tag_47\n      jump\t// in\n    tag_96:\n        /* \"#utility.yul\":3009:3034   */\n      swap2\n      pop\n        /* \"#utility.yul\":3048:3068   */\n      tag_97\n        /* \"#utility.yul\":3066:3067   */\n      dup4\n        /* \"#utility.yul\":3048:3068   */\n      tag_47\n      jump\t// in\n    tag_97:\n        /* \"#utility.yul\":3043:3068   */\n      swap3\n      pop\n        /* \"#utility.yul\":3091:3092   */\n      dup3\n        /* \"#utility.yul\":3088:3089   */\n      dup3\n        /* \"#utility.yul\":3084:3093   */\n      add\n        /* \"#utility.yul\":3077:3093   */\n      swap1\n      pop\n        /* \"#utility.yul\":3112:3115   */\n      dup1\n        /* \"#utility.yul\":3109:3110   */\n      dup3\n        /* \"#utility.yul\":3106:3116   */\n      gt\n        /* \"#utility.yul\":3103:3139   */\n      iszero\n      tag_98\n      jumpi\n        /* \"#utility.yul\":3119:3137   */\n      tag_99\n      tag_59\n      jump\t// in\n    tag_99:\n        /* \"#utility.yul\":3103:3139   */\n    tag_98:\n        /* \"#utility.yul\":2955:3146   */\n      swap3\n      swap2\n      pop\n      pop\n      jump\t// out\n        /* \"#utility.yul\":3152:3323   */\n    tag_60:\n        /* \"#utility.yul\":3292:3315   */\n      0x53656d2073616c646f20706172612073616361722e0000000000000000000000\n        /* \"#utility.yul\":3288:3289   */\n      0x00\n        /* \"#utility.yul\":3280:3286   */\n      dup3\n        /* \"#utility.yul\":3276:3290   */\n      add\n        /* \"#utility.yul\":3269:3316   */\n      mstore\n        /* \"#utility.yul\":3152:3323   */\n      pop\n      jump\t// out\n        /* \"#utility.yul\":3329:3695   */\n    tag_61:\n        /* \"#utility.yul\":3471:3474   */\n      0x00\n        /* \"#utility.yul\":3492:3559   */\n      tag_102\n        /* \"#utility.yul\":3556:3558   */\n      0x15\n        /* \"#utility.yul\":3551:3554   */\n      dup4\n        /* \"#utility.yul\":3492:3559   */\n      tag_56\n      jump\t// in\n    tag_102:\n        /* \"#utility.yul\":3485:3559   */\n      swap2\n      pop\n        /* \"#utility.yul\":3568:3661   */\n      tag_103\n        /* \"#utility.yul\":3657:3660   */\n      dup3\n        /* \"#utility.yul\":3568:3661   */\n      tag_60\n      jump\t// in\n    tag_103:\n        /* \"#utility.yul\":3686:3688   */\n      0x20\n        /* \"#utility.yul\":3681:3684   */\n      dup3\n        /* \"#utility.yul\":3677:3689   */\n      add\n        /* \"#utility.yul\":3670:3689   */\n      swap1\n      pop\n        /* \"#utility.yul\":3329:3695   */\n      swap2\n      swap1\n      pop\n      jump\t// out\n        /* \"#utility.yul\":3701:4120   */\n    tag_35:\n        /* \"#utility.yul\":3867:3871   */\n      0x00\n        /* \"#utility.yul\":3905:3907   */\n      0x20\n        /* \"#utility.yul\":3894:3903   */\n      dup3\n        /* \"#utility.yul\":3890:3908   */\n      add\n        /* \"#utility.yul\":3882:3908   */\n      swap1\n      pop\n        /* \"#utility.yul\":3954:3963   */\n      dup2\n        /* \"#utility.yul\":3948:3952   */\n      dup2\n        /* \"#utility.yul\":3944:3964   */\n      sub\n        /* \"#utility.yul\":3940:3941   */\n      0x00\n        /* \"#utility.yul\":3929:3938   */\n      dup4\n        /* \"#utility.yul\":3925:3942   */\n      add\n        /* \"#utility.yul\":3918:3965   */\n      mstore\n        /* \"#utility.yul\":3982:4113   */\n      tag_105\n        /* \"#utility.yul\":4108:4112   */\n      dup2\n        /* \"#utility.yul\":3982:4113   */\n      tag_61\n      jump\t// in\n    tag_105:\n        /* \"#utility.yul\":3974:4113   */\n      swap1\n      pop\n        /* \"#utility.yul\":3701:4120   */\n      swap2\n      swap1\n      pop\n      jump\t// out\n        /* \"#utility.yul\":4126:4290   */\n    tag_62:\n        /* \"#utility.yul\":4266:4282   */\n      0x46616c6861206e6f20656e76696f000000000000000000000000000000000000\n        /* \"#utility.yul\":4262:4263   */\n      0x00\n        /* \"#utility.yul\":4254:4260   */\n      dup3\n        /* \"#utility.yul\":4250:4264   */\n      add\n        /* \"#utility.yul\":4243:4283   */\n      mstore\n        /* \"#utility.yul\":4126:4290   */\n      pop\n      jump\t// out\n        /* \"#utility.yul\":4296:4662   */\n    tag_63:\n        /* \"#utility.yul\":4438:4441   */\n      0x00\n        /* \"#utility.yul\":4459:4526   */\n      tag_108\n        /* \"#utility.yul\":4523:4525   */\n      0x0e\n        /* \"#utility.yul\":4518:4521   */\n      dup4\n        /* \"#utility.yul\":4459:4526   */\n      tag_56\n      jump\t// in\n    tag_108:\n        /* \"#utility.yul\":4452:4526   */\n      swap2\n      pop\n        /* \"#utility.yul\":4535:4628   */\n      tag_109\n        /* \"#utility.yul\":4624:4627   */\n      dup3\n        /* \"#utility.yul\":4535:4628   */\n      tag_62\n      jump\t// in\n    tag_109:\n        /* \"#utility.yul\":4653:4655   */\n      0x20\n        /* \"#utility.yul\":4648:4651   */\n      dup3\n        /* \"#utility.yul\":4644:4656   */\n      add\n        /* \"#utility.yul\":4637:4656   */\n      swap1\n      pop\n        /* \"#utility.yul\":4296:4662   */\n      swap2\n      swap1\n      pop\n      jump\t// out\n        /* \"#utility.yul\":4668:5087   */\n    tag_39:\n        /* \"#utility.yul\":4834:4838   */\n      0x00\n        /* \"#utility.yul\":4872:4874   */\n      0x20\n        /* \"#utility.yul\":4861:4870   */\n      dup3\n        /* \"#utility.yul\":4857:4875   */\n      add\n        /* \"#utility.yul\":4849:4875   */\n      swap1\n      pop\n        /* \"#utility.yul\":4921:4930   */\n      dup2\n        /* \"#utility.yul\":4915:4919   */\n      dup2\n        /* \"#utility.yul\":4911:4931   */\n      sub\n        /* \"#utility.yul\":4907:4908   */\n      0x00\n        /* \"#utility.yul\":4896:4905   */\n      dup4\n        /* \"#utility.yul\":4892:4909   */\n      add\n        /* \"#utility.yul\":4885:4932   */\n      mstore\n        /* \"#utility.yul\":4949:5080   */\n      tag_111\n        /* \"#utility.yul\":5075:5079   */\n      dup2\n        /* \"#utility.yul\":4949:5080   */\n      tag_63\n      jump\t// in\n    tag_111:\n        /* \"#utility.yul\":4941:5080   */\n      swap1\n      pop\n        /* \"#utility.yul\":4668:5087   */\n      swap2\n      swap1\n      pop\n      jump\t// out\n        /* \"#utility.yul\":5093:5274   */\n    tag_64:\n        /* \"#utility.yul\":5233:5266   */\n      0x5265656e7472616e637947756172643a207265656e7472616e742063616c6c00\n        /* \"#utility.yul\":5229:5230   */\n      0x00\n        /* \"#utility.yul\":5221:5227   */\n      dup3\n        /* \"#utility.yul\":5217:5231   */\n      add\n        /* \"#utility.yul\":5210:5267   */\n      mstore\n        /* \"#utility.yul\":5093:5274   */\n      pop\n      jump\t// out\n        /* \"#utility.yul\":5280:5646   */\n    tag_65:\n        /* \"#utility.yul\":5422:5425   */\n      0x00\n        /* \"#utility.yul\":5443:5510   */\n      tag_114\n        /* \"#utility.yul\":5507:5509   */\n      0x1f\n        /* \"#utility.yul\":5502:5505   */\n      dup4\n        /* \"#utility.yul\":5443:5510   */\n      tag_56\n      jump\t// in\n    tag_114:\n        /* \"#utility.yul\":5436:5510   */\n      swap2\n      pop\n        /* \"#utility.yul\":5519:5612   */\n      tag_115\n        /* \"#utility.yul\":5608:5611   */\n      dup3\n        /* \"#utility.yul\":5519:5612   */\n      tag_64\n      jump\t// in\n    tag_115:\n        /* \"#utility.yul\":5637:5639   */\n      0x20\n        /* \"#utility.yul\":5632:5635   */\n      dup3\n        /* \"#utility.yul\":5628:5640   */\n      add\n        /* \"#utility.yul\":5621:5640   */\n      swap1\n      pop\n        /* \"#utility.yul\":5280:5646   */\n      swap2\n      swap1\n      pop\n      jump\t// out\n        /* \"#utility.yul\":5652:6071   */\n    tag_45:\n        /* \"#utility.yul\":5818:5822   */\n      0x00\n        /* \"#utility.yul\":5856:5858   */\n      0x20\n        /* \"#utility.yul\":5845:5854   */\n      dup3\n        /* \"#utility.yul\":5841:5859   */\n      add\n        /* \"#utility.yul\":5833:5859   */\n      swap1\n      pop\n        /* \"#utility.yul\":5905:5914   */\n      dup2\n        /* \"#utility.yul\":5899:5903   */\n      dup2\n        /* \"#utility.yul\":5895:5915   */\n      sub\n        /* \"#utility.yul\":5891:5892   */\n      0x00\n        /* \"#utility.yul\":5880:5889   */\n      dup4\n        /* \"#utility.yul\":5876:5893   */\n      add\n        /* \"#utility.yul\":5869:5916   */\n      mstore\n        /* \"#utility.yul\":5933:6064   */\n      tag_117\n        /* \"#utility.yul\":6059:6063   */\n      dup2\n        /* \"#utility.yul\":5933:6064   */\n      tag_65\n      jump\t// in\n    tag_117:\n        /* \"#utility.yul\":5925:6064   */\n      swap1\n      pop\n        /* \"#utility.yul\":5652:6071   */\n      swap2\n      swap1\n      pop\n      jump\t// out\n\n    auxdata: 0xa2646970667358221220c06ab784cb1007ec02dfd65f7c39037f8cde67739bdd3acb5c3ff037e7b19d8f64736f6c634300081e0033\n}\n",
				"bytecode": {
					"linkReferences": {},
					"object": "6080604052348015600e575f5ffd5b5060015f8190555061065e806100235f395ff3fe60806040526004361061003e575f3560e01c806306f03e76146100425780633d922f901461006c578063a51068c814610076578063c68c06121461008c575b5f5ffd5b34801561004d575f5ffd5b506100566100c8565b6040516100639190610376565b60405180910390f35b61007461010c565b005b348015610081575f5ffd5b5061008a6101a3565b005b348015610097575f5ffd5b506100b260048036038101906100ad91906103ed565b6102f3565b6040516100bf9190610376565b60405180910390f35b5f60015f3373ffffffffffffffffffffffffffffffffffffffff1673ffffffffffffffffffffffffffffffffffffffff1681526020019081526020015f2054905090565b5f341161014e576040517f08c379a000000000000000000000000000000000000000000000000000000000815260040161014590610472565b60405180910390fd5b3460015f3373ffffffffffffffffffffffffffffffffffffffff1673ffffffffffffffffffffffffffffffffffffffff1681526020019081526020015f205f82825461019a91906104bd565b92505081905550565b6101ab610308565b5f60015f3373ffffffffffffffffffffffffffffffffffffffff1673ffffffffffffffffffffffffffffffffffffffff1681526020019081526020015f205490505f811161022e576040517f08c379a00000000000000000000000000000000000000000000000000000000081526004016102259061053a565b60405180910390fd5b5f60015f3373ffffffffffffffffffffffffffffffffffffffff1673ffffffffffffffffffffffffffffffffffffffff1681526020019081526020015f20819055505f3373ffffffffffffffffffffffffffffffffffffffff166108fc8390811502906040515f60405180830381858888f193505050509050806102e7576040517f08c379a00000000000000000000000000000000000000000000000000000000081526004016102de906105a2565b60405180910390fd5b50506102f1610355565b565b6001602052805f5260405f205f915090505481565b60025f540361034c576040517f08c379a00000000000000000000000000000000000000000000000000000000081526004016103439061060a565b60405180910390fd5b60025f81905550565b60015f81905550565b5f819050919050565b6103708161035e565b82525050565b5f6020820190506103895f830184610367565b92915050565b5f5ffd5b5f73ffffffffffffffffffffffffffffffffffffffff82169050919050565b5f6103bc82610393565b9050919050565b6103cc816103b2565b81146103d6575f5ffd5b50565b5f813590506103e7816103c3565b92915050565b5f602082840312156104025761040161038f565b5b5f61040f848285016103d9565b91505092915050565b5f82825260208201905092915050565b7f56616c6f72206465766520736572206d61696f7220717565207a65726f2e00005f82015250565b5f61045c601e83610418565b915061046782610428565b602082019050919050565b5f6020820190508181035f83015261048981610450565b9050919050565b7f4e487b71000000000000000000000000000000000000000000000000000000005f52601160045260245ffd5b5f6104c78261035e565b91506104d28361035e565b92508282019050808211156104ea576104e9610490565b5b92915050565b7f53656d2073616c646f20706172612073616361722e00000000000000000000005f82015250565b5f610524601583610418565b915061052f826104f0565b602082019050919050565b5f6020820190508181035f83015261055181610518565b9050919050565b7f46616c6861206e6f20656e76696f0000000000000000000000000000000000005f82015250565b5f61058c600e83610418565b915061059782610558565b602082019050919050565b5f6020820190508181035f8301526105b981610580565b9050919050565b7f5265656e7472616e637947756172643a207265656e7472616e742063616c6c005f82015250565b5f6105f4601f83610418565b91506105ff826105c0565b602082019050919050565b5f6020820190508181035f830152610621816105e8565b905091905056fea2646970667358221220c06ab784cb1007ec02dfd65f7c39037f8cde67739bdd3acb5c3ff037e7b19d8f64736f6c634300081e0033",
					"opcodes": "PUSH1 0x80 PUSH1 0x40 MSTORE CALLVALUE DUP1 ISZERO PUSH1 0xE JUMPI PUSH0 PUSH0 REVERT JUMPDEST POP PUSH1 0x1 PUSH0 DUP2 SWAP1 SSTORE POP PUSH2 0x65E DUP1 PUSH2 0x23 PUSH0 CODECOPY PUSH0 RETURN INVALID PUSH1 0x80 PUSH1 0x40 MSTORE PUSH1 0x4 CALLDATASIZE LT PUSH2 0x3E JUMPI PUSH0 CALLDATALOAD PUSH1 0xE0 SHR DUP1 PUSH4 0x6F03E76 EQ PUSH2 0x42 JUMPI DUP1 PUSH4 0x3D922F90 EQ PUSH2 0x6C JUMPI DUP1 PUSH4 0xA51068C8 EQ PUSH2 0x76 JUMPI DUP1 PUSH4 0xC68C0612 EQ PUSH2 0x8C JUMPI JUMPDEST PUSH0 PUSH0 REVERT JUMPDEST CALLVALUE DUP1 ISZERO PUSH2 0x4D JUMPI PUSH0 PUSH0 REVERT JUMPDEST POP PUSH2 0x56 PUSH2 0xC8 JUMP JUMPDEST PUSH1 0x40 MLOAD PUSH2 0x63 SWAP2 SWAP1 PUSH2 0x376 JUMP JUMPDEST PUSH1 0x40 MLOAD DUP1 SWAP2 SUB SWAP1 RETURN JUMPDEST PUSH2 0x74 PUSH2 0x10C JUMP JUMPDEST STOP JUMPDEST CALLVALUE DUP1 ISZERO PUSH2 0x81 JUMPI PUSH0 PUSH0 REVERT JUMPDEST POP PUSH2 0x8A PUSH2 0x1A3 JUMP JUMPDEST STOP JUMPDEST CALLVALUE DUP1 ISZERO PUSH2 0x97 JUMPI PUSH0 PUSH0 REVERT JUMPDEST POP PUSH2 0xB2 PUSH1 0x4 DUP1 CALLDATASIZE SUB DUP2 ADD SWAP1 PUSH2 0xAD SWAP2 SWAP1 PUSH2 0x3ED JUMP JUMPDEST PUSH2 0x2F3 JUMP JUMPDEST PUSH1 0x40 MLOAD PUSH2 0xBF SWAP2 SWAP1 PUSH2 0x376 JUMP JUMPDEST PUSH1 0x40 MLOAD DUP1 SWAP2 SUB SWAP1 RETURN JUMPDEST PUSH0 PUSH1 0x1 PUSH0 CALLER PUSH20 0xFFFFFFFFFFFFFFFFFFFFFFFFFFFFFFFFFFFFFFFF AND PUSH20 0xFFFFFFFFFFFFFFFFFFFFFFFFFFFFFFFFFFFFFFFF AND DUP2 MSTORE PUSH1 0x20 ADD SWAP1 DUP2 MSTORE PUSH1 0x20 ADD PUSH0 KECCAK256 SLOAD SWAP1 POP SWAP1 JUMP JUMPDEST PUSH0 CALLVALUE GT PUSH2 0x14E JUMPI PUSH1 0x40 MLOAD PUSH32 0x8C379A000000000000000000000000000000000000000000000000000000000 DUP2 MSTORE PUSH1 0x4 ADD PUSH2 0x145 SWAP1 PUSH2 0x472 JUMP JUMPDEST PUSH1 0x40 MLOAD DUP1 SWAP2 SUB SWAP1 REVERT JUMPDEST CALLVALUE PUSH1 0x1 PUSH0 CALLER PUSH20 0xFFFFFFFFFFFFFFFFFFFFFFFFFFFFFFFFFFFFFFFF AND PUSH20 0xFFFFFFFFFFFFFFFFFFFFFFFFFFFFFFFFFFFFFFFF AND DUP2 MSTORE PUSH1 0x20 ADD SWAP1 DUP2 MSTORE PUSH1 0x20 ADD PUSH0 KECCAK256 PUSH0 DUP3 DUP3 SLOAD PUSH2 0x19A SWAP2 SWAP1 PUSH2 0x4BD JUMP JUMPDEST SWAP3 POP POP DUP2 SWAP1 SSTORE POP JUMP JUMPDEST PUSH2 0x1AB PUSH2 0x308 JUMP JUMPDEST PUSH0 PUSH1 0x1 PUSH0 CALLER PUSH20 0xFFFFFFFFFFFFFFFFFFFFFFFFFFFFFFFFFFFFFFFF AND PUSH20 0xFFFFFFFFFFFFFFFFFFFFFFFFFFFFFFFFFFFFFFFF AND DUP2 MSTORE PUSH1 0x20 ADD SWAP1 DUP2 MSTORE PUSH1 0x20 ADD PUSH0 KECCAK256 SLOAD SWAP1 POP PUSH0 DUP2 GT PUSH2 0x22E JUMPI PUSH1 0x40 MLOAD PUSH32 0x8C379A000000000000000000000000000000000000000000000000000000000 DUP2 MSTORE PUSH1 0x4 ADD PUSH2 0x225 SWAP1 PUSH2 0x53A JUMP JUMPDEST PUSH1 0x40 MLOAD DUP1 SWAP2 SUB SWAP1 REVERT JUMPDEST PUSH0 PUSH1 0x1 PUSH0 CALLER PUSH20 0xFFFFFFFFFFFFFFFFFFFFFFFFFFFFFFFFFFFFFFFF AND PUSH20 0xFFFFFFFFFFFFFFFFFFFFFFFFFFFFFFFFFFFFFFFF AND DUP2 MSTORE PUSH1 0x20 ADD SWAP1 DUP2 MSTORE PUSH1 0x20 ADD PUSH0 KECCAK256 DUP2 SWAP1 SSTORE POP PUSH0 CALLER PUSH20 0xFFFFFFFFFFFFFFFFFFFFFFFFFFFFFFFFFFFFFFFF AND PUSH2 0x8FC DUP4 SWAP1 DUP2 ISZERO MUL SWAP1 PUSH1 0x40 MLOAD PUSH0 PUSH1 0x40 MLOAD DUP1 DUP4 SUB DUP2 DUP6 DUP9 DUP9 CALL SWAP4 POP POP POP POP SWAP1 POP DUP1 PUSH2 0x2E7 JUMPI PUSH1 0x40 MLOAD PUSH32 0x8C379A000000000000000000000000000000000000000000000000000000000 DUP2 MSTORE PUSH1 0x4 ADD PUSH2 0x2DE SWAP1 PUSH2 0x5A2 JUMP JUMPDEST PUSH1 0x40 MLOAD DUP1 SWAP2 SUB SWAP1 REVERT JUMPDEST POP POP PUSH2 0x2F1 PUSH2 0x355 JUMP JUMPDEST JUMP JUMPDEST PUSH1 0x1 PUSH1 0x20 MSTORE DUP1 PUSH0 MSTORE PUSH1 0x40 PUSH0 KECCAK256 PUSH0 SWAP2 POP SWAP1 POP SLOAD DUP2 JUMP JUMPDEST PUSH1 0x2 PUSH0 SLOAD SUB PUSH2 0x34C JUMPI PUSH1 0x40 MLOAD PUSH32 0x8C379A000000000000000000000000000000000000000000000000000000000 DUP2 MSTORE PUSH1 0x4 ADD PUSH2 0x343 SWAP1 PUSH2 0x60A JUMP JUMPDEST PUSH1 0x40 MLOAD DUP1 SWAP2 SUB SWAP1 REVERT JUMPDEST PUSH1 0x2 PUSH0 DUP2 SWAP1 SSTORE POP JUMP JUMPDEST PUSH1 0x1 PUSH0 DUP2 SWAP1 SSTORE POP JUMP JUMPDEST PUSH0 DUP2 SWAP1 POP SWAP2 SWAP1 POP JUMP JUMPDEST PUSH2 0x370 DUP2 PUSH2 0x35E JUMP JUMPDEST DUP3 MSTORE POP POP JUMP JUMPDEST PUSH0 PUSH1 0x20 DUP3 ADD SWAP1 POP PUSH2 0x389 PUSH0 DUP4 ADD DUP5 PUSH2 0x367 JUMP JUMPDEST SWAP3 SWAP2 POP POP JUMP JUMPDEST PUSH0 PUSH0 REVERT JUMPDEST PUSH0 PUSH20 0xFFFFFFFFFFFFFFFFFFFFFFFFFFFFFFFFFFFFFFFF DUP3 AND SWAP1 POP SWAP2 SWAP1 POP JUMP JUMPDEST PUSH0 PUSH2 0x3BC DUP3 PUSH2 0x393 JUMP JUMPDEST SWAP1 POP SWAP2 SWAP1 POP JUMP JUMPDEST PUSH2 0x3CC DUP2 PUSH2 0x3B2 JUMP JUMPDEST DUP2 EQ PUSH2 0x3D6 JUMPI PUSH0 PUSH0 REVERT JUMPDEST POP JUMP JUMPDEST PUSH0 DUP2 CALLDATALOAD SWAP1 POP PUSH2 0x3E7 DUP2 PUSH2 0x3C3 JUMP JUMPDEST SWAP3 SWAP2 POP POP JUMP JUMPDEST PUSH0 PUSH1 0x20 DUP3 DUP5 SUB SLT ISZERO PUSH2 0x402 JUMPI PUSH2 0x401 PUSH2 0x38F JUMP JUMPDEST JUMPDEST PUSH0 PUSH2 0x40F DUP5 DUP3 DUP6 ADD PUSH2 0x3D9 JUMP JUMPDEST SWAP2 POP POP SWAP3 SWAP2 POP POP JUMP JUMPDEST PUSH0 DUP3 DUP3 MSTORE PUSH1 0x20 DUP3 ADD SWAP1 POP SWAP3 SWAP2 POP POP JUMP JUMPDEST PUSH32 0x56616C6F72206465766520736572206D61696F7220717565207A65726F2E0000 PUSH0 DUP3 ADD MSTORE POP JUMP JUMPDEST PUSH0 PUSH2 0x45C PUSH1 0x1E DUP4 PUSH2 0x418 JUMP JUMPDEST SWAP2 POP PUSH2 0x467 DUP3 PUSH2 0x428 JUMP JUMPDEST PUSH1 0x20 DUP3 ADD SWAP1 POP SWAP2 SWAP1 POP JUMP JUMPDEST PUSH0 PUSH1 0x20 DUP3 ADD SWAP1 POP DUP2 DUP2 SUB PUSH0 DUP4 ADD MSTORE PUSH2 0x489 DUP2 PUSH2 0x450 JUMP JUMPDEST SWAP1 POP SWAP2 SWAP1 POP JUMP JUMPDEST PUSH32 0x4E487B7100000000000000000000000000000000000000000000000000000000 PUSH0 MSTORE PUSH1 0x11 PUSH1 0x4 MSTORE PUSH1 0x24 PUSH0 REVERT JUMPDEST PUSH0 PUSH2 0x4C7 DUP3 PUSH2 0x35E JUMP JUMPDEST SWAP2 POP PUSH2 0x4D2 DUP4 PUSH2 0x35E JUMP JUMPDEST SWAP3 POP DUP3 DUP3 ADD SWAP1 POP DUP1 DUP3 GT ISZERO PUSH2 0x4EA JUMPI PUSH2 0x4E9 PUSH2 0x490 JUMP JUMPDEST JUMPDEST SWAP3 SWAP2 POP POP JUMP JUMPDEST PUSH32 0x53656D2073616C646F20706172612073616361722E0000000000000000000000 PUSH0 DUP3 ADD MSTORE POP JUMP JUMPDEST PUSH0 PUSH2 0x524 PUSH1 0x15 DUP4 PUSH2 0x418 JUMP JUMPDEST SWAP2 POP PUSH2 0x52F DUP3 PUSH2 0x4F0 JUMP JUMPDEST PUSH1 0x20 DUP3 ADD SWAP1 POP SWAP2 SWAP1 POP JUMP JUMPDEST PUSH0 PUSH1 0x20 DUP3 ADD SWAP1 POP DUP2 DUP2 SUB PUSH0 DUP4 ADD MSTORE PUSH2 0x551 DUP2 PUSH2 0x518 JUMP JUMPDEST SWAP1 POP SWAP2 SWAP1 POP JUMP JUMPDEST PUSH32 0x46616C6861206E6F20656E76696F000000000000000000000000000000000000 PUSH0 DUP3 ADD MSTORE POP JUMP JUMPDEST PUSH0 PUSH2 0x58C PUSH1 0xE DUP4 PUSH2 0x418 JUMP JUMPDEST SWAP2 POP PUSH2 0x597 DUP3 PUSH2 0x558 JUMP JUMPDEST PUSH1 0x20 DUP3 ADD SWAP1 POP SWAP2 SWAP1 POP JUMP JUMPDEST PUSH0 PUSH1 0x20 DUP3 ADD SWAP1 POP DUP2 DUP2 SUB PUSH0 DUP4 ADD MSTORE PUSH2 0x5B9 DUP2 PUSH2 0x580 JUMP JUMPDEST SWAP1 POP SWAP2 SWAP1 POP JUMP JUMPDEST PUSH32 0x5265656E7472616E637947756172643A207265656E7472616E742063616C6C00 PUSH0 DUP3 ADD MSTORE POP JUMP JUMPDEST PUSH0 PUSH2 0x5F4 PUSH1 0x1F DUP4 PUSH2 0x418 JUMP JUMPDEST SWAP2 POP PUSH2 0x5FF DUP3 PUSH2 0x5C0 JUMP JUMPDEST PUSH1 0x20 DUP3 ADD SWAP1 POP SWAP2 SWAP1 POP JUMP JUMPDEST PUSH0 PUSH1 0x20 DUP3 ADD SWAP1 POP DUP2 DUP2 SUB PUSH0 DUP4 ADD MSTORE PUSH2 0x621 DUP2 PUSH2 0x5E8 JUMP JUMPDEST SWAP1 POP SWAP2 SWAP1 POP JUMP INVALID LOG2 PUSH5 0x6970667358 0x22 SLT KECCAK256 0xC0 PUSH11 0xB784CB1007EC02DFD65F7C CODECOPY SUB PUSH32 0x8CDE67739BDD3ACB5C3FF037E7B19D8F64736F6C634300081E00330000000000 "
				},
				"gasEstimates": {
					"creation": {
						"codeDepositCost": "326000",
						"executionCost": "22473",
						"totalCost": "348473"
					},
					"external": {
						"depositar()": "infinite",
						"sacar()": "infinite",
						"saldoAtual()": "2497",
						"saldos(address)": "2846"
					}
				},
				"methodIdentifiers": {
					"depositar()": "3d922f90",
					"sacar()": "a51068c8",
					"saldoAtual()": "06f03e76",
					"saldos(address)": "c68c0612"
				}
			},
			"storageLayout": {
				"storage": [
					{
						"astId": 10,
						"contract": "contratoSafeCofre.sol:CofrinhoSeguro",
						"label": "_status",
						"offset": 0,
						"slot": "0",
						"type": "t_uint256"
					},
					{
						"astId": 73,
						"contract": "contratoSafeCofre.sol:CofrinhoSeguro",
						"label": "saldos",
						"offset": 0,
						"slot": "1",
						"type": "t_mapping(t_address,t_uint256)"
					}
				],
				"types": {
					"t_address": {
						"encoding": "inplace",
						"label": "address",
						"numberOfBytes": "20"
					},
					"t_mapping(t_address,t_uint256)": {
						"encoding": "mapping",
						"key": "t_address",
						"label": "mapping(address => uint256)",
						"numberOfBytes": "32",
						"value": "t_uint256"
					},
					"t_uint256": {
						"encoding": "inplace",
						"label": "uint256",
						"numberOfBytes": "32"
					}
				}
			},
			"userdoc": {
				"kind": "user",
				"methods": {},
				"version": 1
			}
		}
	}
}